:1000000012C02DC02BC02AC029C028C027C026C0BE
:1000100025C024C023C022C021C020C01FC01EC0D4
:100020001DC01CC01BC011241FBECFE5D4E0DEBF25
:10003000CDBF10E0A0E6B0E0EAE5F2E002C0059036
:100040000D92A438B107D9F710E0A4E8B0E001C0E0
:100050001D92AD38B107E1F785D0FDC0D1CF1F9219
:100060000F920FB60F9211248F9382E48A95F1F7C5
:1000700000C080918C008F5F80938C0083301CF0D7
:1000800081E080938C008F910F900FBE0F901F9096
:100090001895809187008130B9F0823041F1882332
:1000A000C1F580917B00813011F4969AC69A8091B7
:1000B0007E00813011F4979AC69A80918100813038
:1000C00041F5C09AC69A25C080917C00813011F418
:1000D000969AC79A80917F00813011F4979AC79AB7
:1000E000809182008130A9F4C09AC79A12C0809191
:1000F0007D00813011F4969A959A8091800081302C
:1001000011F4979A959A80918300813011F4C09AE6
:10011000959A89EF90E00197F1F700C00000C6982A
:10012000C798959896989798C098209187002F5FC8
:1001300020938700809184008A3024F48F5F80931D
:1001400084000BC080918500909186000196909369
:1001500086008093850010928400233014F0109262
:100160008700089585B7836085BF8BB780648BBF98
:1001700078948A98929A8D9A8E9A8F9AB89ABE9A03
:10018000BF9A10928700C69AC79A959A969A979A9C
:10019000C09A8FE79AE1A6E081509040A040E1F735
:1001A00000C00000C698C798959896989798C098F0
:1001B0008FE39DE0A3E081509040A040E1F700C0B4
:1001C00000008091850090918600833391050CF4A6
:1001D00040C030918B008091880090918900FC0193
:1001E00023E0EE0FFF1F2A95E1F7E80FF91FEA5908
:1001F000FF4FC1E8D0E020E012C0CE010697DF013A
:1002000016973C91DC013C93CE010397DF011397D5
:100210003C91DC013C93819189932F5F33E0233043
:1002200064F320938A0030938B0080918800909132
:10023000890001969093890080938800833091050E
:1002400024F010928900109288001092860010927B
:0A02500085001FDFB6CFF894FFCF42
:10025A000000000001000000000001000100010090
:10026A000100010101010001010101010101010176
:04027A00010101017C
:00000001FF
